{
  "_format": "hh-sol-artifact-1",
  "contractName": "MyEpicNFT",
  "sourceName": "contracts/MyEpicNFT.sol",
  "abi": [
    {
      "inputs": [],
      "stateMutability": "nonpayable",
      "type": "constructor"
    },
    {
      "anonymous": false,
      "inputs": [
        {
          "indexed": true,
          "internalType": "address",
          "name": "owner",
          "type": "address"
        },
        {
          "indexed": true,
          "internalType": "address",
          "name": "approved",
          "type": "address"
        },
        {
          "indexed": true,
          "internalType": "uint256",
          "name": "tokenId",
          "type": "uint256"
        }
      ],
      "name": "Approval",
      "type": "event"
    },
    {
      "anonymous": false,
      "inputs": [
        {
          "indexed": true,
          "internalType": "address",
          "name": "owner",
          "type": "address"
        },
        {
          "indexed": true,
          "internalType": "address",
          "name": "operator",
          "type": "address"
        },
        {
          "indexed": false,
          "internalType": "bool",
          "name": "approved",
          "type": "bool"
        }
      ],
      "name": "ApprovalForAll",
      "type": "event"
    },
    {
      "anonymous": false,
      "inputs": [
        {
          "indexed": true,
          "internalType": "address",
          "name": "from",
          "type": "address"
        },
        {
          "indexed": true,
          "internalType": "address",
          "name": "to",
          "type": "address"
        },
        {
          "indexed": true,
          "internalType": "uint256",
          "name": "tokenId",
          "type": "uint256"
        }
      ],
      "name": "Transfer",
      "type": "event"
    },
    {
      "inputs": [
        {
          "internalType": "address",
          "name": "to",
          "type": "address"
        },
        {
          "internalType": "uint256",
          "name": "tokenId",
          "type": "uint256"
        }
      ],
      "name": "approve",
      "outputs": [],
      "stateMutability": "nonpayable",
      "type": "function"
    },
    {
      "inputs": [
        {
          "internalType": "address",
          "name": "owner",
          "type": "address"
        }
      ],
      "name": "balanceOf",
      "outputs": [
        {
          "internalType": "uint256",
          "name": "",
          "type": "uint256"
        }
      ],
      "stateMutability": "view",
      "type": "function"
    },
    {
      "inputs": [
        {
          "internalType": "uint256",
          "name": "tokenId",
          "type": "uint256"
        }
      ],
      "name": "getApproved",
      "outputs": [
        {
          "internalType": "address",
          "name": "",
          "type": "address"
        }
      ],
      "stateMutability": "view",
      "type": "function"
    },
    {
      "inputs": [
        {
          "internalType": "address",
          "name": "owner",
          "type": "address"
        },
        {
          "internalType": "address",
          "name": "operator",
          "type": "address"
        }
      ],
      "name": "isApprovedForAll",
      "outputs": [
        {
          "internalType": "bool",
          "name": "",
          "type": "bool"
        }
      ],
      "stateMutability": "view",
      "type": "function"
    },
    {
      "inputs": [
        {
          "internalType": "string",
          "name": "baseFrequency",
          "type": "string"
        },
        {
          "internalType": "string",
          "name": "numOctaves",
          "type": "string"
        },
        {
          "internalType": "string",
          "name": "seed",
          "type": "string"
        }
      ],
      "name": "makeAnEpicNFT",
      "outputs": [],
      "stateMutability": "nonpayable",
      "type": "function"
    },
    {
      "inputs": [],
      "name": "name",
      "outputs": [
        {
          "internalType": "string",
          "name": "",
          "type": "string"
        }
      ],
      "stateMutability": "view",
      "type": "function"
    },
    {
      "inputs": [
        {
          "internalType": "uint256",
          "name": "tokenId",
          "type": "uint256"
        }
      ],
      "name": "ownerOf",
      "outputs": [
        {
          "internalType": "address",
          "name": "",
          "type": "address"
        }
      ],
      "stateMutability": "view",
      "type": "function"
    },
    {
      "inputs": [
        {
          "internalType": "address",
          "name": "from",
          "type": "address"
        },
        {
          "internalType": "address",
          "name": "to",
          "type": "address"
        },
        {
          "internalType": "uint256",
          "name": "tokenId",
          "type": "uint256"
        }
      ],
      "name": "safeTransferFrom",
      "outputs": [],
      "stateMutability": "nonpayable",
      "type": "function"
    },
    {
      "inputs": [
        {
          "internalType": "address",
          "name": "from",
          "type": "address"
        },
        {
          "internalType": "address",
          "name": "to",
          "type": "address"
        },
        {
          "internalType": "uint256",
          "name": "tokenId",
          "type": "uint256"
        },
        {
          "internalType": "bytes",
          "name": "_data",
          "type": "bytes"
        }
      ],
      "name": "safeTransferFrom",
      "outputs": [],
      "stateMutability": "nonpayable",
      "type": "function"
    },
    {
      "inputs": [
        {
          "internalType": "address",
          "name": "operator",
          "type": "address"
        },
        {
          "internalType": "bool",
          "name": "approved",
          "type": "bool"
        }
      ],
      "name": "setApprovalForAll",
      "outputs": [],
      "stateMutability": "nonpayable",
      "type": "function"
    },
    {
      "inputs": [
        {
          "internalType": "bytes4",
          "name": "interfaceId",
          "type": "bytes4"
        }
      ],
      "name": "supportsInterface",
      "outputs": [
        {
          "internalType": "bool",
          "name": "",
          "type": "bool"
        }
      ],
      "stateMutability": "view",
      "type": "function"
    },
    {
      "inputs": [],
      "name": "symbol",
      "outputs": [
        {
          "internalType": "string",
          "name": "",
          "type": "string"
        }
      ],
      "stateMutability": "view",
      "type": "function"
    },
    {
      "inputs": [
        {
          "internalType": "uint256",
          "name": "tokenId",
          "type": "uint256"
        }
      ],
      "name": "tokenURI",
      "outputs": [
        {
          "internalType": "string",
          "name": "",
          "type": "string"
        }
      ],
      "stateMutability": "view",
      "type": "function"
    },
    {
      "inputs": [
        {
          "internalType": "address",
          "name": "from",
          "type": "address"
        },
        {
          "internalType": "address",
          "name": "to",
          "type": "address"
        },
        {
          "internalType": "uint256",
          "name": "tokenId",
          "type": "uint256"
        }
      ],
      "name": "transferFrom",
      "outputs": [],
      "stateMutability": "nonpayable",
      "type": "function"
    }
  ],
  "bytecode": "0x60806040523480156200001157600080fd5b506040518060400160405280600781526020017f49726f646f7269000000000000000000000000000000000000000000000000008152506040518060400160405280600481526020017f4952445200000000000000000000000000000000000000000000000000000000815250816000908051906020019062000096929190620001cf565b508060019080519060200190620000af929190620001cf565b505050620000fd6040518060400160405280601481526020017f436f6e747261637420697320637265617465642e0000000000000000000000008152506200010360201b62000d811760201c565b620003ac565b620001a3816040516024016200011a9190620002c0565b6040516020818303038152906040527f41304fac000000000000000000000000000000000000000000000000000000007bffffffffffffffffffffffffffffffffffffffffffffffffffffffff19166020820180517bffffffffffffffffffffffffffffffffffffffffffffffffffffffff8381831617835250505050620001a660201b60201c565b50565b60008151905060006a636f6e736f6c652e6c6f679050602083016000808483855afa5050505050565b828054620001dd9062000336565b90600052602060002090601f0160209004810192826200020157600085556200024d565b82601f106200021c57805160ff19168380011785556200024d565b828001600101855582156200024d579182015b828111156200024c5782518255916020019190600101906200022f565b5b5090506200025c919062000260565b5090565b5b808211156200027b57600081600090555060010162000261565b5090565b60006200028c82620002e4565b620002988185620002ef565b9350620002aa81856020860162000300565b620002b5816200039b565b840191505092915050565b60006020820190508181036000830152620002dc81846200027f565b905092915050565b600081519050919050565b600082825260208201905092915050565b60005b838110156200032057808201518184015260208101905062000303565b8381111562000330576000848401525b50505050565b600060028204905060018216806200034f57607f821691505b602082108114156200036657620003656200036c565b5b50919050565b7f4e487b7100000000000000000000000000000000000000000000000000000000600052602260045260246000fd5b6000601f19601f8301169050919050565b61362280620003bc6000396000f3fe608060405234801561001057600080fd5b50600436106100ea5760003560e01c806370a082311161008c578063a612854611610066578063a61285461461025b578063b88d4fde14610277578063c87b56dd14610293578063e985e9c5146102c3576100ea565b806370a08231146101f157806395d89b4114610221578063a22cb4651461023f576100ea565b8063095ea7b3116100c8578063095ea7b31461016d57806323b872dd1461018957806342842e0e146101a55780636352211e146101c1576100ea565b806301ffc9a7146100ef57806306fdde031461011f578063081812fc1461013d575b600080fd5b610109600480360381019061010491906121b6565b6102f3565b6040516101169190612cff565b60405180910390f35b6101276103d5565b6040516101349190612d1a565b60405180910390f35b6101576004803603810190610152919061229f565b610467565b6040516101649190612c98565b60405180910390f35b6101876004803603810190610182919061217a565b6104ec565b005b6101a3600480360381019061019e9190612074565b610604565b005b6101bf60048036038101906101ba9190612074565b610664565b005b6101db60048036038101906101d6919061229f565b610684565b6040516101e89190612c98565b60405180910390f35b61020b6004803603810190610206919061200f565b610736565b6040516102189190612f7a565b60405180910390f35b6102296107ee565b6040516102369190612d1a565b60405180910390f35b6102596004803603810190610254919061213e565b610880565b005b61027560048036038101906102709190612208565b610896565b005b610291600480360381019061028c91906120c3565b610b39565b005b6102ad60048036038101906102a8919061229f565b610b9b565b6040516102ba9190612d1a565b60405180910390f35b6102dd60048036038101906102d89190612038565b610ced565b6040516102ea9190612cff565b60405180910390f35b60007f80ac58cd000000000000000000000000000000000000000000000000000000007bffffffffffffffffffffffffffffffffffffffffffffffffffffffff1916827bffffffffffffffffffffffffffffffffffffffffffffffffffffffff191614806103be57507f5b5e139f000000000000000000000000000000000000000000000000000000007bffffffffffffffffffffffffffffffffffffffffffffffffffffffff1916827bffffffffffffffffffffffffffffffffffffffffffffffffffffffff1916145b806103ce57506103cd82610e1a565b5b9050919050565b6060600080546103e490613234565b80601f016020809104026020016040519081016040528092919081815260200182805461041090613234565b801561045d5780601f106104325761010080835404028352916020019161045d565b820191906000526020600020905b81548152906001019060200180831161044057829003601f168201915b5050505050905090565b600061047282610e84565b6104b1576040517f08c379a00000000000000000000000000000000000000000000000000000000081526004016104a890612eda565b60405180910390fd5b6004600083815260200190815260200160002060009054906101000a900473ffffffffffffffffffffffffffffffffffffffff169050919050565b60006104f782610684565b90508073ffffffffffffffffffffffffffffffffffffffff168373ffffffffffffffffffffffffffffffffffffffff161415610568576040517f08c379a000000000000000000000000000000000000000000000000000000000815260040161055f90612f3a565b60405180910390fd5b8073ffffffffffffffffffffffffffffffffffffffff16610587610ef0565b73ffffffffffffffffffffffffffffffffffffffff1614806105b657506105b5816105b0610ef0565b610ced565b5b6105f5576040517f08c379a00000000000000000000000000000000000000000000000000000000081526004016105ec90612e1a565b60405180910390fd5b6105ff8383610ef8565b505050565b61061561060f610ef0565b82610fb1565b610654576040517f08c379a000000000000000000000000000000000000000000000000000000000815260040161064b90612f5a565b60405180910390fd5b61065f83838361108f565b505050565b61067f83838360405180602001604052806000815250610b39565b505050565b6000806002600084815260200190815260200160002060009054906101000a900473ffffffffffffffffffffffffffffffffffffffff169050600073ffffffffffffffffffffffffffffffffffffffff168173ffffffffffffffffffffffffffffffffffffffff16141561072d576040517f08c379a000000000000000000000000000000000000000000000000000000000815260040161072490612e5a565b60405180910390fd5b80915050919050565b60008073ffffffffffffffffffffffffffffffffffffffff168273ffffffffffffffffffffffffffffffffffffffff1614156107a7576040517f08c379a000000000000000000000000000000000000000000000000000000000815260040161079e90612e3a565b60405180910390fd5b600360008373ffffffffffffffffffffffffffffffffffffffff1673ffffffffffffffffffffffffffffffffffffffff168152602001908152602001600020549050919050565b6060600180546107fd90613234565b80601f016020809104026020016040519081016040528092919081815260200182805461082990613234565b80156108765780601f1061084b57610100808354040283529160200191610876565b820191906000526020600020905b81548152906001019060200180831161085957829003601f168201915b5050505050905090565b61089261088b610ef0565b83836112eb565b5050565b60006108a26007611458565b9050600060405180610120016040528060f581526020016134b860f59139905060006040518060400160405280600e81526020017f22206e756d4f6374617665733d22000000000000000000000000000000000000815250905060006040518060400160405280600881526020017f2220736565643d22000000000000000000000000000000000000000000000000815250905060006040518060c001604052806089815260200161342f60899139905060008489858a868b876040516020016109729796959493929190612b9c565b60405160208183030381529060405290506109c16040518060400160405280601581526020017f0a2d2d2d2d2d2d2d2d2d2d2d2d2d2d2d2d2d2d2d2d0000000000000000000000815250610d81565b6109ca81610d81565b610a086040518060400160405280601581526020017f2d2d2d2d2d2d2d2d2d2d2d2d2d2d2d2d2d2d2d2d0a0000000000000000000000815250610d81565b6000610a408a8a8a610a1986611466565b604051602001610a2c9493929190612c23565b604051602081830303815290604052611466565b9050600081604051602001610a559190612c01565b6040516020818303038152906040529050610aa46040518060400160405280601581526020017f0a2d2d2d2d2d2d2d2d2d2d2d2d2d2d2d2d2d2d2d2d0000000000000000000000815250610d81565b610aad81610d81565b610aeb6040518060400160405280601581526020017f2d2d2d2d2d2d2d2d2d2d2d2d2d2d2d2d2d2d2d2d0a0000000000000000000000815250610d81565b610af53389611624565b610aff8882611642565b610b0960076116b6565b610b2c60405180606001604052806025815260200161340a6025913989336116cc565b5050505050505050505050565b610b4a610b44610ef0565b83610fb1565b610b89576040517f08c379a0000000000000000000000000000000000000000000000000000000008152600401610b8090612f5a565b60405180910390fd5b610b958484848461176b565b50505050565b6060610ba682610e84565b610be5576040517f08c379a0000000000000000000000000000000000000000000000000000000008152600401610bdc90612eba565b60405180910390fd5b6000600660008481526020019081526020016000208054610c0590613234565b80601f0160208091040260200160405190810160405280929190818152602001828054610c3190613234565b8015610c7e5780601f10610c5357610100808354040283529160200191610c7e565b820191906000526020600020905b815481529060010190602001808311610c6157829003601f168201915b505050505090506000610c8f6117c7565b9050600081511415610ca5578192505050610ce8565b600082511115610cda578082604051602001610cc2929190612b78565b60405160208183030381529060405292505050610ce8565b610ce3846117de565b925050505b919050565b6000600560008473ffffffffffffffffffffffffffffffffffffffff1673ffffffffffffffffffffffffffffffffffffffff16815260200190815260200160002060008373ffffffffffffffffffffffffffffffffffffffff1673ffffffffffffffffffffffffffffffffffffffff16815260200190815260200160002060009054906101000a900460ff16905092915050565b610e1781604051602401610d959190612d1a565b6040516020818303038152906040527f41304fac000000000000000000000000000000000000000000000000000000007bffffffffffffffffffffffffffffffffffffffffffffffffffffffff19166020820180517bffffffffffffffffffffffffffffffffffffffffffffffffffffffff8381831617835250505050611885565b50565b60007f01ffc9a7000000000000000000000000000000000000000000000000000000007bffffffffffffffffffffffffffffffffffffffffffffffffffffffff1916827bffffffffffffffffffffffffffffffffffffffffffffffffffffffff1916149050919050565b60008073ffffffffffffffffffffffffffffffffffffffff166002600084815260200190815260200160002060009054906101000a900473ffffffffffffffffffffffffffffffffffffffff1673ffffffffffffffffffffffffffffffffffffffff1614159050919050565b600033905090565b816004600083815260200190815260200160002060006101000a81548173ffffffffffffffffffffffffffffffffffffffff021916908373ffffffffffffffffffffffffffffffffffffffff160217905550808273ffffffffffffffffffffffffffffffffffffffff16610f6b83610684565b73ffffffffffffffffffffffffffffffffffffffff167f8c5be1e5ebec7d5bd14f71427d1e84f3dd0314c0f7b2291e5b200ac8c7c3b92560405160405180910390a45050565b6000610fbc82610e84565b610ffb576040517f08c379a0000000000000000000000000000000000000000000000000000000008152600401610ff290612dfa565b60405180910390fd5b600061100683610684565b90508073ffffffffffffffffffffffffffffffffffffffff168473ffffffffffffffffffffffffffffffffffffffff16148061107557508373ffffffffffffffffffffffffffffffffffffffff1661105d84610467565b73ffffffffffffffffffffffffffffffffffffffff16145b8061108657506110858185610ced565b5b91505092915050565b8273ffffffffffffffffffffffffffffffffffffffff166110af82610684565b73ffffffffffffffffffffffffffffffffffffffff1614611105576040517f08c379a00000000000000000000000000000000000000000000000000000000081526004016110fc90612efa565b60405180910390fd5b600073ffffffffffffffffffffffffffffffffffffffff168273ffffffffffffffffffffffffffffffffffffffff161415611175576040517f08c379a000000000000000000000000000000000000000000000000000000000815260040161116c90612dba565b60405180910390fd5b6111808383836118ae565b61118b600082610ef8565b6001600360008573ffffffffffffffffffffffffffffffffffffffff1673ffffffffffffffffffffffffffffffffffffffff16815260200190815260200160002060008282546111db919061314a565b925050819055506001600360008473ffffffffffffffffffffffffffffffffffffffff1673ffffffffffffffffffffffffffffffffffffffff16815260200190815260200160002060008282546112329190613069565b92505081905550816002600083815260200190815260200160002060006101000a81548173ffffffffffffffffffffffffffffffffffffffff021916908373ffffffffffffffffffffffffffffffffffffffff160217905550808273ffffffffffffffffffffffffffffffffffffffff168473ffffffffffffffffffffffffffffffffffffffff167fddf252ad1be2c89b69c2b068fc378daa952ba7f163c4a11628f55a4df523b3ef60405160405180910390a4505050565b8173ffffffffffffffffffffffffffffffffffffffff168373ffffffffffffffffffffffffffffffffffffffff16141561135a576040517f08c379a000000000000000000000000000000000000000000000000000000000815260040161135190612dda565b60405180910390fd5b80600560008573ffffffffffffffffffffffffffffffffffffffff1673ffffffffffffffffffffffffffffffffffffffff16815260200190815260200160002060008473ffffffffffffffffffffffffffffffffffffffff1673ffffffffffffffffffffffffffffffffffffffff16815260200190815260200160002060006101000a81548160ff0219169083151502179055508173ffffffffffffffffffffffffffffffffffffffff168373ffffffffffffffffffffffffffffffffffffffff167f17307eab39ab6107e8899845ad3d59bd9653f200f220920489ca2b5937696c318360405161144b9190612cff565b60405180910390a3505050565b600081600001549050919050565b6060600082519050600081141561148f576040518060200160405280600081525091505061161f565b600060036002836114a09190613069565b6114aa91906130bf565b60046114b691906130f0565b905060006020826114c79190613069565b67ffffffffffffffff811115611506577f4e487b7100000000000000000000000000000000000000000000000000000000600052604160045260246000fd5b6040519080825280601f01601f1916602001820160405280156115385781602001600182028036833780820191505090505b50905060006040518060600160405280604081526020016135ad604091399050600181016020830160005b868110156115dc5760038101905062ffffff818a015116603f8160121c168401518060081b905060ff603f83600c1c1686015116810190508060081b905060ff603f8360061c1686015116810190508060081b905060ff603f831686015116810190508060e01b90508084526004840193505050611563565b5060038606600181146115f6576002811461160657611611565b613d3d60f01b6002830352611611565b603d60f81b60018303525b508484525050819450505050505b919050565b61163e8282604051806020016040528060008152506118b3565b5050565b61164b82610e84565b61168a576040517f08c379a000000000000000000000000000000000000000000000000000000000815260040161168190612e7a565b60405180910390fd5b806006600084815260200190815260200160002090805190602001906116b1929190611e33565b505050565b6001816000016000828254019250508190555050565b6117668383836040516024016116e493929190612d3c565b6040516020818303038152906040527fe3849f79000000000000000000000000000000000000000000000000000000007bffffffffffffffffffffffffffffffffffffffffffffffffffffffff19166020820180517bffffffffffffffffffffffffffffffffffffffffffffffffffffffff8381831617835250505050611885565b505050565b61177684848461108f565b6117828484848461190e565b6117c1576040517f08c379a00000000000000000000000000000000000000000000000000000000081526004016117b890612d7a565b60405180910390fd5b50505050565b606060405180602001604052806000815250905090565b60606117e982610e84565b611828576040517f08c379a000000000000000000000000000000000000000000000000000000000815260040161181f90612f1a565b60405180910390fd5b60006118326117c7565b90506000815111611852576040518060200160405280600081525061187d565b8061185c84611aa5565b60405160200161186d929190612b78565b6040516020818303038152906040525b915050919050565b60008151905060006a636f6e736f6c652e6c6f679050602083016000808483855afa5050505050565b505050565b6118bd8383611c52565b6118ca600084848461190e565b611909576040517f08c379a000000000000000000000000000000000000000000000000000000000815260040161190090612d7a565b60405180910390fd5b505050565b600061192f8473ffffffffffffffffffffffffffffffffffffffff16611e20565b15611a98578373ffffffffffffffffffffffffffffffffffffffff1663150b7a02611958610ef0565b8786866040518563ffffffff1660e01b815260040161197a9493929190612cb3565b602060405180830381600087803b15801561199457600080fd5b505af19250505080156119c557506040513d601f19601f820116820180604052508101906119c291906121df565b60015b611a48573d80600081146119f5576040519150601f19603f3d011682016040523d82523d6000602084013e6119fa565b606091505b50600081511415611a40576040517f08c379a0000000000000000000000000000000000000000000000000000000008152600401611a3790612d7a565b60405180910390fd5b805181602001fd5b63150b7a0260e01b7bffffffffffffffffffffffffffffffffffffffffffffffffffffffff1916817bffffffffffffffffffffffffffffffffffffffffffffffffffffffff191614915050611a9d565b600190505b949350505050565b60606000821415611aed576040518060400160405280600181526020017f30000000000000000000000000000000000000000000000000000000000000008152509050611c4d565b600082905060005b60008214611b1f578080611b0890613266565b915050600a82611b1891906130bf565b9150611af5565b60008167ffffffffffffffff811115611b61577f4e487b7100000000000000000000000000000000000000000000000000000000600052604160045260246000fd5b6040519080825280601f01601f191660200182016040528015611b935781602001600182028036833780820191505090505b5090505b60008514611c4657600182611bac919061314a565b9150600a85611bbb91906132af565b6030611bc79190613069565b60f81b818381518110611c03577f4e487b7100000000000000000000000000000000000000000000000000000000600052603260045260246000fd5b60200101907effffffffffffffffffffffffffffffffffffffffffffffffffffffffffffff1916908160001a905350600a85611c3f91906130bf565b9450611b97565b8093505050505b919050565b600073ffffffffffffffffffffffffffffffffffffffff168273ffffffffffffffffffffffffffffffffffffffff161415611cc2576040517f08c379a0000000000000000000000000000000000000000000000000000000008152600401611cb990612e9a565b60405180910390fd5b611ccb81610e84565b15611d0b576040517f08c379a0000000000000000000000000000000000000000000000000000000008152600401611d0290612d9a565b60405180910390fd5b611d17600083836118ae565b6001600360008473ffffffffffffffffffffffffffffffffffffffff1673ffffffffffffffffffffffffffffffffffffffff1681526020019081526020016000206000828254611d679190613069565b92505081905550816002600083815260200190815260200160002060006101000a81548173ffffffffffffffffffffffffffffffffffffffff021916908373ffffffffffffffffffffffffffffffffffffffff160217905550808273ffffffffffffffffffffffffffffffffffffffff16600073ffffffffffffffffffffffffffffffffffffffff167fddf252ad1be2c89b69c2b068fc378daa952ba7f163c4a11628f55a4df523b3ef60405160405180910390a45050565b600080823b905060008111915050919050565b828054611e3f90613234565b90600052602060002090601f016020900481019282611e615760008555611ea8565b82601f10611e7a57805160ff1916838001178555611ea8565b82800160010185558215611ea8579182015b82811115611ea7578251825591602001919060010190611e8c565b5b509050611eb59190611eb9565b5090565b5b80821115611ed2576000816000905550600101611eba565b5090565b6000611ee9611ee484612fc6565b612f95565b905082815260208101848484011115611f0157600080fd5b611f0c8482856131f2565b509392505050565b6000611f27611f2284612ff6565b612f95565b905082815260208101848484011115611f3f57600080fd5b611f4a8482856131f2565b509392505050565b600081359050611f61816133ad565b92915050565b600081359050611f76816133c4565b92915050565b600081359050611f8b816133db565b92915050565b600081519050611fa0816133db565b92915050565b600082601f830112611fb757600080fd5b8135611fc7848260208601611ed6565b91505092915050565b600082601f830112611fe157600080fd5b8135611ff1848260208601611f14565b91505092915050565b600081359050612009816133f2565b92915050565b60006020828403121561202157600080fd5b600061202f84828501611f52565b91505092915050565b6000806040838503121561204b57600080fd5b600061205985828601611f52565b925050602061206a85828601611f52565b9150509250929050565b60008060006060848603121561208957600080fd5b600061209786828701611f52565b93505060206120a886828701611f52565b92505060406120b986828701611ffa565b9150509250925092565b600080600080608085870312156120d957600080fd5b60006120e787828801611f52565b94505060206120f887828801611f52565b935050604061210987828801611ffa565b925050606085013567ffffffffffffffff81111561212657600080fd5b61213287828801611fa6565b91505092959194509250565b6000806040838503121561215157600080fd5b600061215f85828601611f52565b925050602061217085828601611f67565b9150509250929050565b6000806040838503121561218d57600080fd5b600061219b85828601611f52565b92505060206121ac85828601611ffa565b9150509250929050565b6000602082840312156121c857600080fd5b60006121d684828501611f7c565b91505092915050565b6000602082840312156121f157600080fd5b60006121ff84828501611f91565b91505092915050565b60008060006060848603121561221d57600080fd5b600084013567ffffffffffffffff81111561223757600080fd5b61224386828701611fd0565b935050602084013567ffffffffffffffff81111561226057600080fd5b61226c86828701611fd0565b925050604084013567ffffffffffffffff81111561228957600080fd5b61229586828701611fd0565b9150509250925092565b6000602082840312156122b157600080fd5b60006122bf84828501611ffa565b91505092915050565b6122d18161317e565b82525050565b6122e081613190565b82525050565b60006122f182613026565b6122fb818561303c565b935061230b818560208601613201565b6123148161339c565b840191505092915050565b600061232a82613031565b612334818561304d565b9350612344818560208601613201565b61234d8161339c565b840191505092915050565b600061236382613031565b61236d818561305e565b935061237d818560208601613201565b80840191505092915050565b600061239660078361305e565b91507f2c20736565643d000000000000000000000000000000000000000000000000006000830152600782019050919050565b60006123d660328361304d565b91507f4552433732313a207472616e7366657220746f206e6f6e20455243373231526560008301527f63656976657220696d706c656d656e74657200000000000000000000000000006020830152604082019050919050565b600061243c601c8361304d565b91507f4552433732313a20746f6b656e20616c7265616479206d696e746564000000006000830152602082019050919050565b600061247c60248361304d565b91507f4552433732313a207472616e7366657220746f20746865207a65726f2061646460008301527f72657373000000000000000000000000000000000000000000000000000000006020830152604082019050919050565b60006124e260198361304d565b91507f4552433732313a20617070726f766520746f2063616c6c6572000000000000006000830152602082019050919050565b6000612522600d8361305e565b91507f2c206e756d4f6374617665733d000000000000000000000000000000000000006000830152600d82019050919050565b6000612562602c8361304d565b91507f4552433732313a206f70657261746f7220717565727920666f72206e6f6e657860008301527f697374656e7420746f6b656e00000000000000000000000000000000000000006020830152604082019050919050565b60006125c860388361304d565b91507f4552433732313a20617070726f76652063616c6c6572206973206e6f74206f7760008301527f6e6572206e6f7220617070726f76656420666f7220616c6c00000000000000006020830152604082019050919050565b600061262e60688361305e565b91507f222c20226465736372697074696f6e223a202249726f646f72692066756c6c7960008301527f206f6e2d636861696e204e4654207573696e67205065726c696e206e6f69736560208301527f2e222c2022696d616765223a2022646174613a696d6167652f7376672b786d6c60408301527f3b6261736536342c0000000000000000000000000000000000000000000000006060830152606882019050919050565b60006126e0602a8361304d565b91507f4552433732313a2062616c616e636520717565727920666f7220746865207a6560008301527f726f2061646472657373000000000000000000000000000000000000000000006020830152604082019050919050565b600061274660298361304d565b91507f4552433732313a206f776e657220717565727920666f72206e6f6e657869737460008301527f656e7420746f6b656e00000000000000000000000000000000000000000000006020830152604082019050919050565b60006127ac602e8361304d565b91507f45524337323155524953746f726167653a2055524920736574206f66206e6f6e60008301527f6578697374656e7420746f6b656e0000000000000000000000000000000000006020830152604082019050919050565b600061281260028361305e565b91507f227d0000000000000000000000000000000000000000000000000000000000006000830152600282019050919050565b600061285260208361304d565b91507f4552433732313a206d696e7420746f20746865207a65726f20616464726573736000830152602082019050919050565b600061289260318361304d565b91507f45524337323155524953746f726167653a2055524920717565727920666f722060008301527f6e6f6e6578697374656e7420746f6b656e0000000000000000000000000000006020830152604082019050919050565b60006128f8602c8361304d565b91507f4552433732313a20617070726f76656420717565727920666f72206e6f6e657860008301527f697374656e7420746f6b656e00000000000000000000000000000000000000006020830152604082019050919050565b600061295e60298361304d565b91507f4552433732313a207472616e73666572206f6620746f6b656e2074686174206960008301527f73206e6f74206f776e00000000000000000000000000000000000000000000006020830152604082019050919050565b60006129c4602f8361304d565b91507f4552433732314d657461646174613a2055524920717565727920666f72206e6f60008301527f6e6578697374656e7420746f6b656e00000000000000000000000000000000006020830152604082019050919050565b6000612a2a60218361304d565b91507f4552433732313a20617070726f76616c20746f2063757272656e74206f776e6560008301527f72000000000000000000000000000000000000000000000000000000000000006020830152604082019050919050565b6000612a90601d8361305e565b91507f646174613a6170706c69636174696f6e2f6a736f6e3b6261736536342c0000006000830152601d82019050919050565b6000612ad060318361304d565b91507f4552433732313a207472616e736665722063616c6c6572206973206e6f74206f60008301527f776e6572206e6f7220617070726f7665640000000000000000000000000000006020830152604082019050919050565b6000612b3660188361305e565b91507f7b226e616d65223a2022626173654672657175656e63793d00000000000000006000830152601882019050919050565b612b72816131e8565b82525050565b6000612b848285612358565b9150612b908284612358565b91508190509392505050565b6000612ba8828a612358565b9150612bb48289612358565b9150612bc08288612358565b9150612bcc8287612358565b9150612bd88286612358565b9150612be48285612358565b9150612bf08284612358565b915081905098975050505050505050565b6000612c0c82612a83565b9150612c188284612358565b915081905092915050565b6000612c2e82612b29565b9150612c3a8287612358565b9150612c4582612515565b9150612c518286612358565b9150612c5c82612389565b9150612c688285612358565b9150612c7382612621565b9150612c7f8284612358565b9150612c8a82612805565b915081905095945050505050565b6000602082019050612cad60008301846122c8565b92915050565b6000608082019050612cc860008301876122c8565b612cd560208301866122c8565b612ce26040830185612b69565b8181036060830152612cf481846122e6565b905095945050505050565b6000602082019050612d1460008301846122d7565b92915050565b60006020820190508181036000830152612d34818461231f565b905092915050565b60006060820190508181036000830152612d56818661231f565b9050612d656020830185612b69565b612d7260408301846122c8565b949350505050565b60006020820190508181036000830152612d93816123c9565b9050919050565b60006020820190508181036000830152612db38161242f565b9050919050565b60006020820190508181036000830152612dd38161246f565b9050919050565b60006020820190508181036000830152612df3816124d5565b9050919050565b60006020820190508181036000830152612e1381612555565b9050919050565b60006020820190508181036000830152612e33816125bb565b9050919050565b60006020820190508181036000830152612e53816126d3565b9050919050565b60006020820190508181036000830152612e7381612739565b9050919050565b60006020820190508181036000830152612e938161279f565b9050919050565b60006020820190508181036000830152612eb381612845565b9050919050565b60006020820190508181036000830152612ed381612885565b9050919050565b60006020820190508181036000830152612ef3816128eb565b9050919050565b60006020820190508181036000830152612f1381612951565b9050919050565b60006020820190508181036000830152612f33816129b7565b9050919050565b60006020820190508181036000830152612f5381612a1d565b9050919050565b60006020820190508181036000830152612f7381612ac3565b9050919050565b6000602082019050612f8f6000830184612b69565b92915050565b6000604051905081810181811067ffffffffffffffff82111715612fbc57612fbb61336d565b5b8060405250919050565b600067ffffffffffffffff821115612fe157612fe061336d565b5b601f19601f8301169050602081019050919050565b600067ffffffffffffffff8211156130115761301061336d565b5b601f19601f8301169050602081019050919050565b600081519050919050565b600081519050919050565b600082825260208201905092915050565b600082825260208201905092915050565b600081905092915050565b6000613074826131e8565b915061307f836131e8565b9250827fffffffffffffffffffffffffffffffffffffffffffffffffffffffffffffffff038211156130b4576130b36132e0565b5b828201905092915050565b60006130ca826131e8565b91506130d5836131e8565b9250826130e5576130e461330f565b5b828204905092915050565b60006130fb826131e8565b9150613106836131e8565b9250817fffffffffffffffffffffffffffffffffffffffffffffffffffffffffffffffff048311821515161561313f5761313e6132e0565b5b828202905092915050565b6000613155826131e8565b9150613160836131e8565b925082821015613173576131726132e0565b5b828203905092915050565b6000613189826131c8565b9050919050565b60008115159050919050565b60007fffffffff0000000000000000000000000000000000000000000000000000000082169050919050565b600073ffffffffffffffffffffffffffffffffffffffff82169050919050565b6000819050919050565b82818337600083830152505050565b60005b8381101561321f578082015181840152602081019050613204565b8381111561322e576000848401525b50505050565b6000600282049050600182168061324c57607f821691505b602082108114156132605761325f61333e565b5b50919050565b6000613271826131e8565b91507fffffffffffffffffffffffffffffffffffffffffffffffffffffffffffffffff8214156132a4576132a36132e0565b5b600182019050919050565b60006132ba826131e8565b91506132c5836131e8565b9250826132d5576132d461330f565b5b828206905092915050565b7f4e487b7100000000000000000000000000000000000000000000000000000000600052601160045260246000fd5b7f4e487b7100000000000000000000000000000000000000000000000000000000600052601260045260246000fd5b7f4e487b7100000000000000000000000000000000000000000000000000000000600052602260045260246000fd5b7f4e487b7100000000000000000000000000000000000000000000000000000000600052604160045260246000fd5b6000601f19601f8301169050919050565b6133b68161317e565b81146133c157600080fd5b50565b6133cd81613190565b81146133d857600080fd5b50565b6133e48161319c565b81146133ef57600080fd5b50565b6133fb816131e8565b811461340657600080fd5b5056fe416e204e465420772f20494420257320686173206265656e206d696e74656420746f202573222073746974636854696c65733d227374696368223e3c2f666554757262756c656e63653e3c2f66696c7465723e3c2f646566733e3c726563742066696c7465723d2275726c2823666554757262756c656e6365292220783d22302220793d2230222077696474683d2233353022206865696768743d22333530223e3c2f726563743e3c2f7376673e3c73766720786d6c6e733d22687474703a2f2f7777772e77332e6f72672f323030302f73766722207072657365727665417370656374526174696f3d22784d696e594d696e206d656574222076696577426f783d223020302033353020333530223e3c646566733e3c66696c7465722069643d22666554757262756c656e6365222066696c746572556e6974733d227573657253706163654f6e5573652220783d22302220793d2230222077696474683d2233353022206865696768743d22333530223e3c666554757262756c656e636520747970653d226672616374616c4e6f6973652220626173654672657175656e63793d224142434445464748494a4b4c4d4e4f505152535455565758595a6162636465666768696a6b6c6d6e6f707172737475767778797a303132333435363738392b2fa26469706673582212208f001ad0ca05b5d1dc69dddecae2706d536ad048a20085be12861d2aa9bdc14c64736f6c63430008000033",
  "linkReferences": {},
  "deployedLinkReferences": {}
}