{
  "_format": "hh-sol-artifact-1",
  "contractName": "irodoriNFT",
  "sourceName": "contracts/irodoriNFT.sol",
  "abi": [
    {
      "inputs": [],
      "stateMutability": "nonpayable",
      "type": "constructor"
    },
    {
      "anonymous": false,
      "inputs": [
        {
          "indexed": true,
          "internalType": "address",
          "name": "owner",
          "type": "address"
        },
        {
          "indexed": true,
          "internalType": "address",
          "name": "approved",
          "type": "address"
        },
        {
          "indexed": true,
          "internalType": "uint256",
          "name": "tokenId",
          "type": "uint256"
        }
      ],
      "name": "Approval",
      "type": "event"
    },
    {
      "anonymous": false,
      "inputs": [
        {
          "indexed": true,
          "internalType": "address",
          "name": "owner",
          "type": "address"
        },
        {
          "indexed": true,
          "internalType": "address",
          "name": "operator",
          "type": "address"
        },
        {
          "indexed": false,
          "internalType": "bool",
          "name": "approved",
          "type": "bool"
        }
      ],
      "name": "ApprovalForAll",
      "type": "event"
    },
    {
      "anonymous": false,
      "inputs": [
        {
          "indexed": false,
          "internalType": "address",
          "name": "sender",
          "type": "address"
        },
        {
          "indexed": false,
          "internalType": "uint256",
          "name": "tokenId",
          "type": "uint256"
        }
      ],
      "name": "NewIrodoriNFTMinted",
      "type": "event"
    },
    {
      "anonymous": false,
      "inputs": [
        {
          "indexed": true,
          "internalType": "address",
          "name": "from",
          "type": "address"
        },
        {
          "indexed": true,
          "internalType": "address",
          "name": "to",
          "type": "address"
        },
        {
          "indexed": true,
          "internalType": "uint256",
          "name": "tokenId",
          "type": "uint256"
        }
      ],
      "name": "Transfer",
      "type": "event"
    },
    {
      "inputs": [
        {
          "internalType": "address",
          "name": "to",
          "type": "address"
        },
        {
          "internalType": "uint256",
          "name": "tokenId",
          "type": "uint256"
        }
      ],
      "name": "approve",
      "outputs": [],
      "stateMutability": "nonpayable",
      "type": "function"
    },
    {
      "inputs": [
        {
          "internalType": "address",
          "name": "owner",
          "type": "address"
        }
      ],
      "name": "balanceOf",
      "outputs": [
        {
          "internalType": "uint256",
          "name": "",
          "type": "uint256"
        }
      ],
      "stateMutability": "view",
      "type": "function"
    },
    {
      "inputs": [
        {
          "internalType": "string",
          "name": "baseFrequency",
          "type": "string"
        },
        {
          "internalType": "string",
          "name": "numOctaves",
          "type": "string"
        },
        {
          "internalType": "string",
          "name": "seed",
          "type": "string"
        }
      ],
      "name": "createNFT",
      "outputs": [],
      "stateMutability": "nonpayable",
      "type": "function"
    },
    {
      "inputs": [
        {
          "internalType": "uint256",
          "name": "tokenId",
          "type": "uint256"
        }
      ],
      "name": "getApproved",
      "outputs": [
        {
          "internalType": "address",
          "name": "",
          "type": "address"
        }
      ],
      "stateMutability": "view",
      "type": "function"
    },
    {
      "inputs": [
        {
          "internalType": "address",
          "name": "owner",
          "type": "address"
        },
        {
          "internalType": "address",
          "name": "operator",
          "type": "address"
        }
      ],
      "name": "isApprovedForAll",
      "outputs": [
        {
          "internalType": "bool",
          "name": "",
          "type": "bool"
        }
      ],
      "stateMutability": "view",
      "type": "function"
    },
    {
      "inputs": [],
      "name": "name",
      "outputs": [
        {
          "internalType": "string",
          "name": "",
          "type": "string"
        }
      ],
      "stateMutability": "view",
      "type": "function"
    },
    {
      "inputs": [
        {
          "internalType": "uint256",
          "name": "tokenId",
          "type": "uint256"
        }
      ],
      "name": "ownerOf",
      "outputs": [
        {
          "internalType": "address",
          "name": "",
          "type": "address"
        }
      ],
      "stateMutability": "view",
      "type": "function"
    },
    {
      "inputs": [
        {
          "internalType": "address",
          "name": "from",
          "type": "address"
        },
        {
          "internalType": "address",
          "name": "to",
          "type": "address"
        },
        {
          "internalType": "uint256",
          "name": "tokenId",
          "type": "uint256"
        }
      ],
      "name": "safeTransferFrom",
      "outputs": [],
      "stateMutability": "nonpayable",
      "type": "function"
    },
    {
      "inputs": [
        {
          "internalType": "address",
          "name": "from",
          "type": "address"
        },
        {
          "internalType": "address",
          "name": "to",
          "type": "address"
        },
        {
          "internalType": "uint256",
          "name": "tokenId",
          "type": "uint256"
        },
        {
          "internalType": "bytes",
          "name": "_data",
          "type": "bytes"
        }
      ],
      "name": "safeTransferFrom",
      "outputs": [],
      "stateMutability": "nonpayable",
      "type": "function"
    },
    {
      "inputs": [
        {
          "internalType": "address",
          "name": "operator",
          "type": "address"
        },
        {
          "internalType": "bool",
          "name": "approved",
          "type": "bool"
        }
      ],
      "name": "setApprovalForAll",
      "outputs": [],
      "stateMutability": "nonpayable",
      "type": "function"
    },
    {
      "inputs": [
        {
          "internalType": "bytes4",
          "name": "interfaceId",
          "type": "bytes4"
        }
      ],
      "name": "supportsInterface",
      "outputs": [
        {
          "internalType": "bool",
          "name": "",
          "type": "bool"
        }
      ],
      "stateMutability": "view",
      "type": "function"
    },
    {
      "inputs": [],
      "name": "symbol",
      "outputs": [
        {
          "internalType": "string",
          "name": "",
          "type": "string"
        }
      ],
      "stateMutability": "view",
      "type": "function"
    },
    {
      "inputs": [
        {
          "internalType": "uint256",
          "name": "tokenId",
          "type": "uint256"
        }
      ],
      "name": "tokenURI",
      "outputs": [
        {
          "internalType": "string",
          "name": "",
          "type": "string"
        }
      ],
      "stateMutability": "view",
      "type": "function"
    },
    {
      "inputs": [
        {
          "internalType": "address",
          "name": "from",
          "type": "address"
        },
        {
          "internalType": "address",
          "name": "to",
          "type": "address"
        },
        {
          "internalType": "uint256",
          "name": "tokenId",
          "type": "uint256"
        }
      ],
      "name": "transferFrom",
      "outputs": [],
      "stateMutability": "nonpayable",
      "type": "function"
    }
  ],
  "bytecode": "0x60806040523480156200001157600080fd5b506040518060400160405280600781526020017f49726f646f7269000000000000000000000000000000000000000000000000008152506040518060400160405280600281526020017f2d2d000000000000000000000000000000000000000000000000000000000000815250816000908051906020019062000096929190620001d7565b508060019080519060200190620000af929190620001d7565b5050506001600781905550620001056040518060400160405280601481526020017f436f6e747261637420697320637265617465642e0000000000000000000000008152506200010b60201b62000dbe1760201c565b620003b4565b620001ab81604051602401620001229190620002c8565b6040516020818303038152906040527f41304fac000000000000000000000000000000000000000000000000000000007bffffffffffffffffffffffffffffffffffffffffffffffffffffffff19166020820180517bffffffffffffffffffffffffffffffffffffffffffffffffffffffff8381831617835250505050620001ae60201b60201c565b50565b60008151905060006a636f6e736f6c652e6c6f679050602083016000808483855afa5050505050565b828054620001e5906200033e565b90600052602060002090601f01602090048101928262000209576000855562000255565b82601f106200022457805160ff191683800117855562000255565b8280016001018555821562000255579182015b828111156200025457825182559160200191906001019062000237565b5b50905062000264919062000268565b5090565b5b808211156200028357600081600090555060010162000269565b5090565b60006200029482620002ec565b620002a08185620002f7565b9350620002b281856020860162000308565b620002bd81620003a3565b840191505092915050565b60006020820190508181036000830152620002e4818462000287565b905092915050565b600081519050919050565b600082825260208201905092915050565b60005b83811015620003285780820151818401526020810190506200030b565b8381111562000338576000848401525b50505050565b600060028204905060018216806200035757607f821691505b602082108114156200036e576200036d62000374565b5b50919050565b7f4e487b7100000000000000000000000000000000000000000000000000000000600052602260045260246000fd5b6000601f19601f8301169050919050565b6135b280620003c46000396000f3fe608060405234801561001057600080fd5b50600436106100ea5760003560e01c806370a082311161008c578063a22cb46511610066578063a22cb4651461025b578063b88d4fde14610277578063c87b56dd14610293578063e985e9c5146102c3576100ea565b806370a08231146101f157806395d89b41146102215780639f8e9dbc1461023f576100ea565b8063095ea7b3116100c8578063095ea7b31461016d57806323b872dd1461018957806342842e0e146101a55780636352211e146101c1576100ea565b806301ffc9a7146100ef57806306fdde031461011f578063081812fc1461013d575b600080fd5b610109600480360381019061010491906121f3565b6102f3565b6040516101169190612c8f565b60405180910390f35b6101276103d5565b6040516101349190612caa565b60405180910390f35b610157600480360381019061015291906122dc565b610467565b6040516101649190612bff565b60405180910390f35b610187600480360381019061018291906121b7565b6104ec565b005b6101a3600480360381019061019e91906120b1565b610604565b005b6101bf60048036038101906101ba91906120b1565b610664565b005b6101db60048036038101906101d691906122dc565b610684565b6040516101e89190612bff565b60405180910390f35b61020b6004803603810190610206919061204c565b610736565b6040516102189190612f0a565b60405180910390f35b6102296107ee565b6040516102369190612caa565b60405180910390f35b61025960048036038101906102549190612245565b610880565b005b6102756004803603810190610270919061217b565b610b60565b005b610291600480360381019061028c9190612100565b610b76565b005b6102ad60048036038101906102a891906122dc565b610bd8565b6040516102ba9190612caa565b60405180910390f35b6102dd60048036038101906102d89190612075565b610d2a565b6040516102ea9190612c8f565b60405180910390f35b60007f80ac58cd000000000000000000000000000000000000000000000000000000007bffffffffffffffffffffffffffffffffffffffffffffffffffffffff1916827bffffffffffffffffffffffffffffffffffffffffffffffffffffffff191614806103be57507f5b5e139f000000000000000000000000000000000000000000000000000000007bffffffffffffffffffffffffffffffffffffffffffffffffffffffff1916827bffffffffffffffffffffffffffffffffffffffffffffffffffffffff1916145b806103ce57506103cd82610e57565b5b9050919050565b6060600080546103e4906131c4565b80601f0160208091040260200160405190810160405280929190818152602001828054610410906131c4565b801561045d5780601f106104325761010080835404028352916020019161045d565b820191906000526020600020905b81548152906001019060200180831161044057829003601f168201915b5050505050905090565b600061047282610ec1565b6104b1576040517f08c379a00000000000000000000000000000000000000000000000000000000081526004016104a890612e6a565b60405180910390fd5b6004600083815260200190815260200160002060009054906101000a900473ffffffffffffffffffffffffffffffffffffffff169050919050565b60006104f782610684565b90508073ffffffffffffffffffffffffffffffffffffffff168373ffffffffffffffffffffffffffffffffffffffff161415610568576040517f08c379a000000000000000000000000000000000000000000000000000000000815260040161055f90612eca565b60405180910390fd5b8073ffffffffffffffffffffffffffffffffffffffff16610587610f2d565b73ffffffffffffffffffffffffffffffffffffffff1614806105b657506105b5816105b0610f2d565b610d2a565b5b6105f5576040517f08c379a00000000000000000000000000000000000000000000000000000000081526004016105ec90612daa565b60405180910390fd5b6105ff8383610f35565b505050565b61061561060f610f2d565b82610fee565b610654576040517f08c379a000000000000000000000000000000000000000000000000000000000815260040161064b90612eea565b60405180910390fd5b61065f8383836110cc565b505050565b61067f83838360405180602001604052806000815250610b76565b505050565b6000806002600084815260200190815260200160002060009054906101000a900473ffffffffffffffffffffffffffffffffffffffff169050600073ffffffffffffffffffffffffffffffffffffffff168173ffffffffffffffffffffffffffffffffffffffff16141561072d576040517f08c379a000000000000000000000000000000000000000000000000000000000815260040161072490612dea565b60405180910390fd5b80915050919050565b60008073ffffffffffffffffffffffffffffffffffffffff168273ffffffffffffffffffffffffffffffffffffffff1614156107a7576040517f08c379a000000000000000000000000000000000000000000000000000000000815260040161079e90612dca565b60405180910390fd5b600360008373ffffffffffffffffffffffffffffffffffffffff1673ffffffffffffffffffffffffffffffffffffffff168152602001908152602001600020549050919050565b6060600180546107fd906131c4565b80601f0160208091040260200160405190810160405280929190818152602001828054610829906131c4565b80156108765780601f1061084b57610100808354040283529160200191610876565b820191906000526020600020905b81548152906001019060200180831161085957829003601f168201915b5050505050905090565b600061088c6008611328565b9050600060405180610120016040528060f5815260200161344860f59139905060006040518060400160405280600e81526020017f22206e756d4f6374617665733d22000000000000000000000000000000000000815250905060006040518060400160405280600881526020017f2220736565643d22000000000000000000000000000000000000000000000000815250905060006040518060c00160405280608981526020016133bf60899139905060008489858a868b8760405160200161095c9796959493929190612b33565b60405160208183030381529060405290506109ab6040518060400160405280601581526020017f0a2d2d2d2d2d2d2d2d2d2d2d2d2d2d2d2d2d2d2d2d0000000000000000000000815250610dbe565b6109b481610dbe565b6109f26040518060400160405280601581526020017f2d2d2d2d2d2d2d2d2d2d2d2d2d2d2d2d2d2d2d2d0a0000000000000000000000815250610dbe565b6000610a2e610a0088611336565b610a09846114e3565b604051602001610a1a929190612bba565b6040516020818303038152906040526114e3565b9050600081604051602001610a439190612b98565b6040516020818303038152906040529050610a926040518060400160405280601581526020017f0a2d2d2d2d2d2d2d2d2d2d2d2d2d2d2d2d2d2d2d2d0000000000000000000000815250610dbe565b610a9b81610dbe565b610ad96040518060400160405280601581526020017f2d2d2d2d2d2d2d2d2d2d2d2d2d2d2d2d2d2d2d2d0a0000000000000000000000815250610dbe565b610ae333896116a1565b610aed88826116bf565b610af76008611733565b610b1a60405180606001604052806025815260200161339a602591398933611749565b7f4bd993f90fc5e7f16fc2629da601d640dbe2022d35e92c121b250ca60b5b4d013389604051610b4b929190612c66565b60405180910390a15050505050505050505050565b610b72610b6b610f2d565b83836117e8565b5050565b610b87610b81610f2d565b83610fee565b610bc6576040517f08c379a0000000000000000000000000000000000000000000000000000000008152600401610bbd90612eea565b60405180910390fd5b610bd284848484611955565b50505050565b6060610be382610ec1565b610c22576040517f08c379a0000000000000000000000000000000000000000000000000000000008152600401610c1990612e4a565b60405180910390fd5b6000600660008481526020019081526020016000208054610c42906131c4565b80601f0160208091040260200160405190810160405280929190818152602001828054610c6e906131c4565b8015610cbb5780601f10610c9057610100808354040283529160200191610cbb565b820191906000526020600020905b815481529060010190602001808311610c9e57829003601f168201915b505050505090506000610ccc6119b1565b9050600081511415610ce2578192505050610d25565b600082511115610d17578082604051602001610cff929190612b0f565b60405160208183030381529060405292505050610d25565b610d20846119c8565b925050505b919050565b6000600560008473ffffffffffffffffffffffffffffffffffffffff1673ffffffffffffffffffffffffffffffffffffffff16815260200190815260200160002060008373ffffffffffffffffffffffffffffffffffffffff1673ffffffffffffffffffffffffffffffffffffffff16815260200190815260200160002060009054906101000a900460ff16905092915050565b610e5481604051602401610dd29190612caa565b6040516020818303038152906040527f41304fac000000000000000000000000000000000000000000000000000000007bffffffffffffffffffffffffffffffffffffffffffffffffffffffff19166020820180517bffffffffffffffffffffffffffffffffffffffffffffffffffffffff8381831617835250505050611a6f565b50565b60007f01ffc9a7000000000000000000000000000000000000000000000000000000007bffffffffffffffffffffffffffffffffffffffffffffffffffffffff1916827bffffffffffffffffffffffffffffffffffffffffffffffffffffffff1916149050919050565b60008073ffffffffffffffffffffffffffffffffffffffff166002600084815260200190815260200160002060009054906101000a900473ffffffffffffffffffffffffffffffffffffffff1673ffffffffffffffffffffffffffffffffffffffff1614159050919050565b600033905090565b816004600083815260200190815260200160002060006101000a81548173ffffffffffffffffffffffffffffffffffffffff021916908373ffffffffffffffffffffffffffffffffffffffff160217905550808273ffffffffffffffffffffffffffffffffffffffff16610fa883610684565b73ffffffffffffffffffffffffffffffffffffffff167f8c5be1e5ebec7d5bd14f71427d1e84f3dd0314c0f7b2291e5b200ac8c7c3b92560405160405180910390a45050565b6000610ff982610ec1565b611038576040517f08c379a000000000000000000000000000000000000000000000000000000000815260040161102f90612d8a565b60405180910390fd5b600061104383610684565b90508073ffffffffffffffffffffffffffffffffffffffff168473ffffffffffffffffffffffffffffffffffffffff1614806110b257508373ffffffffffffffffffffffffffffffffffffffff1661109a84610467565b73ffffffffffffffffffffffffffffffffffffffff16145b806110c357506110c28185610d2a565b5b91505092915050565b8273ffffffffffffffffffffffffffffffffffffffff166110ec82610684565b73ffffffffffffffffffffffffffffffffffffffff1614611142576040517f08c379a000000000000000000000000000000000000000000000000000000000815260040161113990612e8a565b60405180910390fd5b600073ffffffffffffffffffffffffffffffffffffffff168273ffffffffffffffffffffffffffffffffffffffff1614156111b2576040517f08c379a00000000000000000000000000000000000000000000000000000000081526004016111a990612d4a565b60405180910390fd5b6111bd838383611a98565b6111c8600082610f35565b6001600360008573ffffffffffffffffffffffffffffffffffffffff1673ffffffffffffffffffffffffffffffffffffffff168152602001908152602001600020600082825461121891906130da565b925050819055506001600360008473ffffffffffffffffffffffffffffffffffffffff1673ffffffffffffffffffffffffffffffffffffffff168152602001908152602001600020600082825461126f9190612ff9565b92505081905550816002600083815260200190815260200160002060006101000a81548173ffffffffffffffffffffffffffffffffffffffff021916908373ffffffffffffffffffffffffffffffffffffffff160217905550808273ffffffffffffffffffffffffffffffffffffffff168473ffffffffffffffffffffffffffffffffffffffff167fddf252ad1be2c89b69c2b068fc378daa952ba7f163c4a11628f55a4df523b3ef60405160405180910390a4505050565b600081600001549050919050565b6060600082141561137e576040518060400160405280600181526020017f300000000000000000000000000000000000000000000000000000000000000081525090506114de565b600082905060005b600082146113b0578080611399906131f6565b915050600a826113a9919061304f565b9150611386565b60008167ffffffffffffffff8111156113f2577f4e487b7100000000000000000000000000000000000000000000000000000000600052604160045260246000fd5b6040519080825280601f01601f1916602001820160405280156114245781602001600182028036833780820191505090505b5090505b600085146114d75760018261143d91906130da565b9150600a8561144c919061323f565b60306114589190612ff9565b60f81b818381518110611494577f4e487b7100000000000000000000000000000000000000000000000000000000600052603260045260246000fd5b60200101907effffffffffffffffffffffffffffffffffffffffffffffffffffffffffffff1916908160001a905350600a856114d0919061304f565b9450611428565b8093505050505b919050565b6060600082519050600081141561150c576040518060200160405280600081525091505061169c565b6000600360028361151d9190612ff9565b611527919061304f565b60046115339190613080565b905060006020826115449190612ff9565b67ffffffffffffffff811115611583577f4e487b7100000000000000000000000000000000000000000000000000000000600052604160045260246000fd5b6040519080825280601f01601f1916602001820160405280156115b55781602001600182028036833780820191505090505b509050600060405180606001604052806040815260200161353d604091399050600181016020830160005b868110156116595760038101905062ffffff818a015116603f8160121c168401518060081b905060ff603f83600c1c1686015116810190508060081b905060ff603f8360061c1686015116810190508060081b905060ff603f831686015116810190508060e01b905080845260048401935050506115e0565b50600386066001811461167357600281146116835761168e565b613d3d60f01b600283035261168e565b603d60f81b60018303525b508484525050819450505050505b919050565b6116bb828260405180602001604052806000815250611a9d565b5050565b6116c882610ec1565b611707576040517f08c379a00000000000000000000000000000000000000000000000000000000081526004016116fe90612e0a565b60405180910390fd5b8060066000848152602001908152602001600020908051906020019061172e929190611e70565b505050565b6001816000016000828254019250508190555050565b6117e383838360405160240161176193929190612ccc565b6040516020818303038152906040527fe3849f79000000000000000000000000000000000000000000000000000000007bffffffffffffffffffffffffffffffffffffffffffffffffffffffff19166020820180517bffffffffffffffffffffffffffffffffffffffffffffffffffffffff8381831617835250505050611a6f565b505050565b8173ffffffffffffffffffffffffffffffffffffffff168373ffffffffffffffffffffffffffffffffffffffff161415611857576040517f08c379a000000000000000000000000000000000000000000000000000000000815260040161184e90612d6a565b60405180910390fd5b80600560008573ffffffffffffffffffffffffffffffffffffffff1673ffffffffffffffffffffffffffffffffffffffff16815260200190815260200160002060008473ffffffffffffffffffffffffffffffffffffffff1673ffffffffffffffffffffffffffffffffffffffff16815260200190815260200160002060006101000a81548160ff0219169083151502179055508173ffffffffffffffffffffffffffffffffffffffff168373ffffffffffffffffffffffffffffffffffffffff167f17307eab39ab6107e8899845ad3d59bd9653f200f220920489ca2b5937696c31836040516119489190612c8f565b60405180910390a3505050565b6119608484846110cc565b61196c84848484611af8565b6119ab576040517f08c379a00000000000000000000000000000000000000000000000000000000081526004016119a290612d0a565b60405180910390fd5b50505050565b606060405180602001604052806000815250905090565b60606119d382610ec1565b611a12576040517f08c379a0000000000000000000000000000000000000000000000000000000008152600401611a0990612eaa565b60405180910390fd5b6000611a1c6119b1565b90506000815111611a3c5760405180602001604052806000815250611a67565b80611a4684611336565b604051602001611a57929190612b0f565b6040516020818303038152906040525b915050919050565b60008151905060006a636f6e736f6c652e6c6f679050602083016000808483855afa5050505050565b505050565b611aa78383611c8f565b611ab46000848484611af8565b611af3576040517f08c379a0000000000000000000000000000000000000000000000000000000008152600401611aea90612d0a565b60405180910390fd5b505050565b6000611b198473ffffffffffffffffffffffffffffffffffffffff16611e5d565b15611c82578373ffffffffffffffffffffffffffffffffffffffff1663150b7a02611b42610f2d565b8786866040518563ffffffff1660e01b8152600401611b649493929190612c1a565b602060405180830381600087803b158015611b7e57600080fd5b505af1925050508015611baf57506040513d601f19601f82011682018060405250810190611bac919061221c565b60015b611c32573d8060008114611bdf576040519150601f19603f3d011682016040523d82523d6000602084013e611be4565b606091505b50600081511415611c2a576040517f08c379a0000000000000000000000000000000000000000000000000000000008152600401611c2190612d0a565b60405180910390fd5b805181602001fd5b63150b7a0260e01b7bffffffffffffffffffffffffffffffffffffffffffffffffffffffff1916817bffffffffffffffffffffffffffffffffffffffffffffffffffffffff191614915050611c87565b600190505b949350505050565b600073ffffffffffffffffffffffffffffffffffffffff168273ffffffffffffffffffffffffffffffffffffffff161415611cff576040517f08c379a0000000000000000000000000000000000000000000000000000000008152600401611cf690612e2a565b60405180910390fd5b611d0881610ec1565b15611d48576040517f08c379a0000000000000000000000000000000000000000000000000000000008152600401611d3f90612d2a565b60405180910390fd5b611d5460008383611a98565b6001600360008473ffffffffffffffffffffffffffffffffffffffff1673ffffffffffffffffffffffffffffffffffffffff1681526020019081526020016000206000828254611da49190612ff9565b92505081905550816002600083815260200190815260200160002060006101000a81548173ffffffffffffffffffffffffffffffffffffffff021916908373ffffffffffffffffffffffffffffffffffffffff160217905550808273ffffffffffffffffffffffffffffffffffffffff16600073ffffffffffffffffffffffffffffffffffffffff167fddf252ad1be2c89b69c2b068fc378daa952ba7f163c4a11628f55a4df523b3ef60405160405180910390a45050565b600080823b905060008111915050919050565b828054611e7c906131c4565b90600052602060002090601f016020900481019282611e9e5760008555611ee5565b82601f10611eb757805160ff1916838001178555611ee5565b82800160010185558215611ee5579182015b82811115611ee4578251825591602001919060010190611ec9565b5b509050611ef29190611ef6565b5090565b5b80821115611f0f576000816000905550600101611ef7565b5090565b6000611f26611f2184612f56565b612f25565b905082815260208101848484011115611f3e57600080fd5b611f49848285613182565b509392505050565b6000611f64611f5f84612f86565b612f25565b905082815260208101848484011115611f7c57600080fd5b611f87848285613182565b509392505050565b600081359050611f9e8161333d565b92915050565b600081359050611fb381613354565b92915050565b600081359050611fc88161336b565b92915050565b600081519050611fdd8161336b565b92915050565b600082601f830112611ff457600080fd5b8135612004848260208601611f13565b91505092915050565b600082601f83011261201e57600080fd5b813561202e848260208601611f51565b91505092915050565b60008135905061204681613382565b92915050565b60006020828403121561205e57600080fd5b600061206c84828501611f8f565b91505092915050565b6000806040838503121561208857600080fd5b600061209685828601611f8f565b92505060206120a785828601611f8f565b9150509250929050565b6000806000606084860312156120c657600080fd5b60006120d486828701611f8f565b93505060206120e586828701611f8f565b92505060406120f686828701612037565b9150509250925092565b6000806000806080858703121561211657600080fd5b600061212487828801611f8f565b945050602061213587828801611f8f565b935050604061214687828801612037565b925050606085013567ffffffffffffffff81111561216357600080fd5b61216f87828801611fe3565b91505092959194509250565b6000806040838503121561218e57600080fd5b600061219c85828601611f8f565b92505060206121ad85828601611fa4565b9150509250929050565b600080604083850312156121ca57600080fd5b60006121d885828601611f8f565b92505060206121e985828601612037565b9150509250929050565b60006020828403121561220557600080fd5b600061221384828501611fb9565b91505092915050565b60006020828403121561222e57600080fd5b600061223c84828501611fce565b91505092915050565b60008060006060848603121561225a57600080fd5b600084013567ffffffffffffffff81111561227457600080fd5b6122808682870161200d565b935050602084013567ffffffffffffffff81111561229d57600080fd5b6122a98682870161200d565b925050604084013567ffffffffffffffff8111156122c657600080fd5b6122d28682870161200d565b9150509250925092565b6000602082840312156122ee57600080fd5b60006122fc84828501612037565b91505092915050565b61230e8161310e565b82525050565b61231d81613120565b82525050565b600061232e82612fb6565b6123388185612fcc565b9350612348818560208601613191565b6123518161332c565b840191505092915050565b600061236782612fc1565b6123718185612fdd565b9350612381818560208601613191565b61238a8161332c565b840191505092915050565b60006123a082612fc1565b6123aa8185612fee565b93506123ba818560208601613191565b80840191505092915050565b60006123d3603283612fdd565b91507f4552433732313a207472616e7366657220746f206e6f6e20455243373231526560008301527f63656976657220696d706c656d656e74657200000000000000000000000000006020830152604082019050919050565b6000612439601c83612fdd565b91507f4552433732313a20746f6b656e20616c7265616479206d696e746564000000006000830152602082019050919050565b6000612479602483612fdd565b91507f4552433732313a207472616e7366657220746f20746865207a65726f2061646460008301527f72657373000000000000000000000000000000000000000000000000000000006020830152604082019050919050565b60006124df601983612fdd565b91507f4552433732313a20617070726f766520746f2063616c6c6572000000000000006000830152602082019050919050565b600061251f602c83612fdd565b91507f4552433732313a206f70657261746f7220717565727920666f72206e6f6e657860008301527f697374656e7420746f6b656e00000000000000000000000000000000000000006020830152604082019050919050565b6000612585603883612fdd565b91507f4552433732313a20617070726f76652063616c6c6572206973206e6f74206f7760008301527f6e6572206e6f7220617070726f76656420666f7220616c6c00000000000000006020830152604082019050919050565b60006125eb602a83612fdd565b91507f4552433732313a2062616c616e636520717565727920666f7220746865207a6560008301527f726f2061646472657373000000000000000000000000000000000000000000006020830152604082019050919050565b6000612651602983612fdd565b91507f4552433732313a206f776e657220717565727920666f72206e6f6e657869737460008301527f656e7420746f6b656e00000000000000000000000000000000000000000000006020830152604082019050919050565b60006126b7602e83612fdd565b91507f45524337323155524953746f726167653a2055524920736574206f66206e6f6e60008301527f6578697374656e7420746f6b656e0000000000000000000000000000000000006020830152604082019050919050565b600061271d600283612fee565b91507f227d0000000000000000000000000000000000000000000000000000000000006000830152600282019050919050565b600061275d602083612fdd565b91507f4552433732313a206d696e7420746f20746865207a65726f20616464726573736000830152602082019050919050565b600061279d603183612fdd565b91507f45524337323155524953746f726167653a2055524920717565727920666f722060008301527f6e6f6e6578697374656e7420746f6b656e0000000000000000000000000000006020830152604082019050919050565b6000612803602c83612fdd565b91507f4552433732313a20617070726f76656420717565727920666f72206e6f6e657860008301527f697374656e7420746f6b656e00000000000000000000000000000000000000006020830152604082019050919050565b6000612869602983612fdd565b91507f4552433732313a207472616e73666572206f6620746f6b656e2074686174206960008301527f73206e6f74206f776e00000000000000000000000000000000000000000000006020830152604082019050919050565b60006128cf602f83612fdd565b91507f4552433732314d657461646174613a2055524920717565727920666f72206e6f60008301527f6e6578697374656e7420746f6b656e00000000000000000000000000000000006020830152604082019050919050565b6000612935605b83612fee565b91507f222c20226465736372697074696f6e223a202249726f646f726920416c70686160008301527f2c2066756c6c79206f6e2d636861696e204e4654222c2022696d616765223a2060208301527f22646174613a696d6167652f7376672b786d6c3b6261736536342c00000000006040830152605b82019050919050565b60006129c1602183612fdd565b91507f4552433732313a20617070726f76616c20746f2063757272656e74206f776e6560008301527f72000000000000000000000000000000000000000000000000000000000000006020830152604082019050919050565b6000612a27601d83612fee565b91507f646174613a6170706c69636174696f6e2f6a736f6e3b6261736536342c0000006000830152601d82019050919050565b6000612a67601e83612fee565b91507f7b226e616d65223a202249726f646f726920416c7068612062727573682000006000830152601e82019050919050565b6000612aa7603183612fdd565b91507f4552433732313a207472616e736665722063616c6c6572206973206e6f74206f60008301527f776e6572206e6f7220617070726f7665640000000000000000000000000000006020830152604082019050919050565b612b0981613178565b82525050565b6000612b1b8285612395565b9150612b278284612395565b91508190509392505050565b6000612b3f828a612395565b9150612b4b8289612395565b9150612b578288612395565b9150612b638287612395565b9150612b6f8286612395565b9150612b7b8285612395565b9150612b878284612395565b915081905098975050505050505050565b6000612ba382612a1a565b9150612baf8284612395565b915081905092915050565b6000612bc582612a5a565b9150612bd18285612395565b9150612bdc82612928565b9150612be88284612395565b9150612bf382612710565b91508190509392505050565b6000602082019050612c146000830184612305565b92915050565b6000608082019050612c2f6000830187612305565b612c3c6020830186612305565b612c496040830185612b00565b8181036060830152612c5b8184612323565b905095945050505050565b6000604082019050612c7b6000830185612305565b612c886020830184612b00565b9392505050565b6000602082019050612ca46000830184612314565b92915050565b60006020820190508181036000830152612cc4818461235c565b905092915050565b60006060820190508181036000830152612ce6818661235c565b9050612cf56020830185612b00565b612d026040830184612305565b949350505050565b60006020820190508181036000830152612d23816123c6565b9050919050565b60006020820190508181036000830152612d438161242c565b9050919050565b60006020820190508181036000830152612d638161246c565b9050919050565b60006020820190508181036000830152612d83816124d2565b9050919050565b60006020820190508181036000830152612da381612512565b9050919050565b60006020820190508181036000830152612dc381612578565b9050919050565b60006020820190508181036000830152612de3816125de565b9050919050565b60006020820190508181036000830152612e0381612644565b9050919050565b60006020820190508181036000830152612e23816126aa565b9050919050565b60006020820190508181036000830152612e4381612750565b9050919050565b60006020820190508181036000830152612e6381612790565b9050919050565b60006020820190508181036000830152612e83816127f6565b9050919050565b60006020820190508181036000830152612ea38161285c565b9050919050565b60006020820190508181036000830152612ec3816128c2565b9050919050565b60006020820190508181036000830152612ee3816129b4565b9050919050565b60006020820190508181036000830152612f0381612a9a565b9050919050565b6000602082019050612f1f6000830184612b00565b92915050565b6000604051905081810181811067ffffffffffffffff82111715612f4c57612f4b6132fd565b5b8060405250919050565b600067ffffffffffffffff821115612f7157612f706132fd565b5b601f19601f8301169050602081019050919050565b600067ffffffffffffffff821115612fa157612fa06132fd565b5b601f19601f8301169050602081019050919050565b600081519050919050565b600081519050919050565b600082825260208201905092915050565b600082825260208201905092915050565b600081905092915050565b600061300482613178565b915061300f83613178565b9250827fffffffffffffffffffffffffffffffffffffffffffffffffffffffffffffffff0382111561304457613043613270565b5b828201905092915050565b600061305a82613178565b915061306583613178565b9250826130755761307461329f565b5b828204905092915050565b600061308b82613178565b915061309683613178565b9250817fffffffffffffffffffffffffffffffffffffffffffffffffffffffffffffffff04831182151516156130cf576130ce613270565b5b828202905092915050565b60006130e582613178565b91506130f083613178565b92508282101561310357613102613270565b5b828203905092915050565b600061311982613158565b9050919050565b60008115159050919050565b60007fffffffff0000000000000000000000000000000000000000000000000000000082169050919050565b600073ffffffffffffffffffffffffffffffffffffffff82169050919050565b6000819050919050565b82818337600083830152505050565b60005b838110156131af578082015181840152602081019050613194565b838111156131be576000848401525b50505050565b600060028204905060018216806131dc57607f821691505b602082108114156131f0576131ef6132ce565b5b50919050565b600061320182613178565b91507fffffffffffffffffffffffffffffffffffffffffffffffffffffffffffffffff82141561323457613233613270565b5b600182019050919050565b600061324a82613178565b915061325583613178565b9250826132655761326461329f565b5b828206905092915050565b7f4e487b7100000000000000000000000000000000000000000000000000000000600052601160045260246000fd5b7f4e487b7100000000000000000000000000000000000000000000000000000000600052601260045260246000fd5b7f4e487b7100000000000000000000000000000000000000000000000000000000600052602260045260246000fd5b7f4e487b7100000000000000000000000000000000000000000000000000000000600052604160045260246000fd5b6000601f19601f8301169050919050565b6133468161310e565b811461335157600080fd5b50565b61335d81613120565b811461336857600080fd5b50565b6133748161312c565b811461337f57600080fd5b50565b61338b81613178565b811461339657600080fd5b5056fe416e204e465420772f20494420257320686173206265656e206d696e74656420746f202573222073746974636854696c65733d227374696368223e3c2f666554757262756c656e63653e3c2f66696c7465723e3c2f646566733e3c726563742066696c7465723d2275726c2823666554757262756c656e6365292220783d22302220793d2230222077696474683d2233353022206865696768743d22333530223e3c2f726563743e3c2f7376673e3c73766720786d6c6e733d22687474703a2f2f7777772e77332e6f72672f323030302f73766722207072657365727665417370656374526174696f3d22784d696e594d696e206d656574222076696577426f783d223020302033353020333530223e3c646566733e3c66696c7465722069643d22666554757262756c656e6365222066696c746572556e6974733d227573657253706163654f6e5573652220783d22302220793d2230222077696474683d2233353022206865696768743d22333530223e3c666554757262756c656e636520747970653d226672616374616c4e6f6973652220626173654672657175656e63793d224142434445464748494a4b4c4d4e4f505152535455565758595a6162636465666768696a6b6c6d6e6f707172737475767778797a303132333435363738392b2fa26469706673582212204e7e136b57b4a9cf07b67f185693e392072c9e710947fb4e29dda3aad69db71064736f6c63430008000033",
  "linkReferences": {},
  "deployedLinkReferences": {}
}